:100000000C948F060C94D6060C94D6060C94D60647
:100010000C94D6060C94D6060C94D6060C94D606F0
:100020000C94D6060C94D6060C94FB280C94CF297D
:100030000C94261B0C94D6060C94D6060C94D6066B
:100040000C94D6060C94D6060C94D6060C94D606C0
:100050000C94D6060C947D1B0C94D6060C94D606F4
:100060000C94D6060C94D6060C94D6060C94D606A0
:100070000C94D6060C94D6060C94D6060C94D60690
:100080000C94D6060C94D6060C94D6060C94D60680
:100090000C94B9080C94D6060C94D6060C94D6068B
:1000A0000C94D6060C94D6060C94D60625303258FD
:1000B0003A20253031366225730A00722F632030D2
:1000C0003132333435363738394142434445460AB4
:1000D0000014001A0008002B001500180017001C5F
:1000E00000120013002F000C003000000031004C03
:1000F000001E001F002000290021002400220023F0
:1001000000260027002D0025002E0000002A0049AF
:10011000000000E300E200E0000000000000002C0E
:1001200000E6000000E40000000151510050004FC3
:100130000000001D001B00E1000600110019000571
:10014000003600370038001000E5005200000000C3
:1001500000040016000700390009000D000A000B1A
:10016000000F00330034000E0000000000280000E3
:100170000001000100010001000100010001000177
:100180000047004800010046000100000001000196
:10019000003A003B003C0035003D0040003E003F7F
:1001A00000420043004400410045000000010001FE
:1001B000000000010001000100000000000000013B
:1001C00000010000000100000001510100010001D8
:1001D0000000000100010001000100010001000118
:1001E000004D004E00010001000100010000000070
:1001F00000010001000100010001000100010001F7
:10020000004B00010001004A000000000001000056
:100210000044454255473A2064697361626C6564E5
:100220002E0A0044454255473A20656E61626C656E
:10023000642E0A000A002530325820006B6579626E
:100240006F6172645F7265706F72743A20000A00A9
:1002500025303258006B6579626F6172645F736537
:10026000745F6C65643A200064656C5F6B65795FF0
:100270006269743A2063616E27742064656C3A2069
:10028000253032580A006164645F6B65795F62698A
:10029000743A2063616E2774206164643A202530CB
:1002A00032580A00290A002575002F002575005DC7
:1002B000280025640020002564002000256400201B
:1002C000002564007C0025303258006D6F75736521
:1002D0006B6579205B62746E7C782079207620686B
:1002E0005D287265702F61636C293A205B006D6B2D
:1002F0005F776865656C5F74696D655F746F5F6D6E
:100300006178203D2025640A006D6B5F7768656524
:100310006C5F6D61785F7370656564203D20256456
:100320000A006D6B5F74696D655F746F5F6D6178F6
:10033000203D2025640A006D6B5F6D61785F7370EE
:10034000656564203D2025640A006D6B5F696E74ED
:10035000657276616C203D2025640A006D6B5F64D8
:10036000656C6179203D2025640A006D6B5F7768BC
:1003700065656C5F74696D655F746F5F6D61782032
:100380003D2025640A006D6B5F776865656C5F6D65
:1003900061785F7370656564203D2025640A006D97
:1003A0006B5F74696D655F746F5F6D6178203D2070
:1003B00025640A006D6B5F6D61785F7370656564BD
:1003C000203D2025640A006D6B5F696E746572764E
:1003D000616C203D2025640A006D6B5F64656C6173
:1003E00079203D2025640A000A00257500363A2050
:1003F000776865656C5F74696D655F746F5F6D616B
:10040000783A20000A00257500353A20776865653E
:100410006C5F6D61785F73706565643A20000A00F7
:10042000257500343A2074696D655F746F5F6D6186
:10043000783A20000A00257500333A206D61785F14
:1004400073706565643A20000A00257500323A2011
:10045000696E74657276616C286D73293A20000AA2
:1004600000257500313A2064656C6179282A3130A5
:100470006D73293A20000A092D2056616C75657349
:10048000202D0A004D3E004D25643E20003F0073A4
:1004900065742064656661756C740A00433E2000D3
:1004A00077686572652064656C74613A2063757263
:1004B000736F723D25642C20776865656C3D2564FB
:1004C0000A53656520687474703A2F2F656E2E7715
:1004D000696B6970656469612E6F72672F77696BEC
:1004E000692F4D6F7573655F6B6579730A000A0933
:1004F0002D204D6F7573656B6579202D0A4553432B
:100500002F713A09717569740A313A0964656C6131
:1005100079282A31306D73290A323A09696E746577
:100520007276616C286D73290A333A096D61785FC0
:1005300073706565640A343A0974696D655F746F38
:100540005F6D61780A353A09776865656C5F6D6142
:10055000785F73706565640A363A09776865656C1B
:100560005F74696D655F746F5F6D61780A0A703AD8
:10057000097072696E742076616C7565730A643AED
:10058000097365742064656661756C74730A7570AF
:100590003A092B310A646F776E3A092D310A706778
:1005A00075703A092B31300A7067646F776E3A09BB
:1005B0002D31300A0A7370656564203D2064656CD6
:1005C0007461202A206D61785F7370656564202AEC
:1005D0002028726570656174202F2074696D655FD5
:1005E000746F5F6D6178290A003F004D3E20004323
:1005F0003E20004C25640A0074696D65725F726567
:100600006164333228293A202530346C580A006B53
:1006100065796D61705F636F6E6669672E6E6B7270
:100620006F3A2025580A006B6579626F6172645FCA
:1006300069646C653A2025580A006B6579626F61C0
:1006400072645F70726F746F636F6C3A2025580A22
:1006500000686F73745F6B6579626F6172645F6C61
:1006600065647328293A2025580A000A092D205369
:100670007461747573202D0A004743433A20382E65
:10068000342E30204156522D4C4942433A20322ECE
:10069000302E30204156525F415243483A20617615
:1006A00072350A004F5054494F4E533A204C55462C
:1006B00041204D4F5553454B4559204558545241C3
:1006C0004B455920434F4E534F4C4520434F4D4DC2
:1006D000414E44204E4B524F20343039360A0042AE
:1006E00055494C443A2020284D617220203920324F
:1006F000303231290A005649443A203078343835AE
:100700003328736B696D7A6F7229205049443A20FF
:1007100030783636304328535A36363043292056FF
:1007200045523A203078303130300A000A092D2005
:1007300056657273696F6E202D0A000A092D2043D9
:100740006F6E736F6C65202D0A4553432F713A0904
:10075000717569740A6D3A096D6F7573656B6579AA
:100760000A000A092D204D61676963202D0A443A69
:10077000094465627567204D657373616765205430
:100780006F67676C650A583A094D61747269782021
:100790004465627567204D6F646520546F67676CB0
:1007A00065202D2053686F77206B657970726573B3
:1007B00073657320696E206D617472697820677249
:1007C00069640A4B3A094B6579626F61726420442F
:1007D0006562756720546F67676C65202D205368CC
:1007E0006F77206B65797072657373207265706FB7
:1007F00072740A4D3A094465627567204D6F7573CE
:100800006520546F67676C650A563A0956657273BE
:10081000696F6E0A533A095374617475730A433AE7
:1008200009416374697661746520436F6E736F6C00
:1008300065204D6F64650A46312D4631303A0953C3
:10084000776974636820746F204C61796572203019
:100850002D392028463130203D204C30290A302DBA
:10086000393A0953776974636820746F204C617951
:10087000657220302D390A47524156453A0953775F
:100880006974636820746F204C6179657220302030
:1008900028616C7465726E617465290A423A094A6E
:1008A000756D7020746F20426F6F746C6F6164653A
:1008B000720A4553433A094A756D7020746F20429D
:1008C0006F6F746C6F616465722028616C746572FF
:1008D0006E617465290A453A095072696E74204543
:1008E0004550524F4D2053657474696E67730A42C8
:1008F00053504143453A09436C6561722045455068
:10090000524F4D0A4E3A094E4B524F20546F676773
:100910006C650A000A002575002E6E6B726F3A2016
:10092000000A002575002E737761705F6261636B4A
:10093000736C6173685F6261636B73706163653A66
:1009400020000A002575002E737761705F67726161
:1009500076655F6573633A20000A002575002E6E88
:100960006F5F6775693A20000A002575002E73775E
:1009700061705F72616C745F726775693A20000A1A
:10098000002575002E737761705F6C616C745F6C0D
:100990006775693A20000A002575002E737761702B
:1009A0005F7263746C5F726775693A20000A002594
:1009B00075002E737761705F6C63746C5F6C677524
:1009C000693A20000A002575002E636170736C6F10
:1009D000636B5F746F5F636F6E74726F6C3A20004D
:1009E0000A002575002E737761705F636F6E7472F5
:1009F0006F6C5F636170736C6F636B3A20000A0009
:100A000025303258006B65796D61705F636F6E667B
:100A100069672E7261773A20000A002575002E6DF5
:100A20006F7573653A20000A002575002E6B657995
:100A3000626F6172643A20000A002575002E6D61B4
:100A4000747269783A20000A002575002E656E617F
:100A5000626C653A20000A002530325800646562F5
:100A600075675F636F6E6669672E7261773A200003
:100A70000A0025750064656661756C745F6C617948
:100A800065723A20003F004E4B524F3A206F666627
:100A90000A004E4B524F3A206F6E0A000A6D6F7576
:100AA00073653A206F66660A000A6D6F7573653A62
:100AB000206F6E0A000A6B6579626F6172643A207A
:100AC0006F66660A000A6B6579626F6172643A202C
:100AD0006F6E0A000A6D61747269783A206F6666FB
:100AE0000A000A6D61747269783A206F6E0A000A12
:100AF00064656275673A206F66660A000A6465621B
:100B000075673A206F6E0A000A0A4A756D70696E41
:100B10006720746F20626F6F746C6F616465722EF2
:100B20002E2E2000433E2000436C656172696E6783
:100B300020454550524F4D0A006565636F6E6669EA
:100B4000673A0A005B735D004B6579626F6172649E
:100B50002073746172742E0A005B575D005B535DF5
:100B6000005B525D005B445D005B435D000E035320
:100B7000005A0036003600300043000000100373B6
:100B8000006B0069006D007A006F007200000004C5
:100B900003090409025B00030100A0FA0904000034
:100BA0000103010100092111010001224000070594
:100BB000810308000A090401000103000000092163
:100BC0001101000122BC000705820320000A09046C
:100BD000020002030000000921110100012222008D
:100BE000070583032000010705030320000112010C
:100BF00010010000000853480C66000101020001CA
:100C00000631FF0974A1010975150026FF00952022
:100C1000750881020976150026FF00952075089158
:100C200002C005010902A10185020901A10005090F
:100C30001901290515002501950575018102950108
:100C4000750381010501093009311581257F950260
:100C50007508810609381581257F9501750881067B
:100C6000050C0A38021581257F950175088106C09B
:100C7000C005010980A101850319012AB7001501EA
:100C800026B700950175108100C0050C0901A1016E
:100C9000850419012AA002150126A00295017510EC
:100CA0008100C005010906A1018505050719E02994
:100CB000E71500250195087501810205071900292E
:100CC000EF1500250195F07501810205081901292C
:100CD00005950575019102950175039101C0050106
:100CE0000906A101050719E029E715002501950866
:100CF000750181029501750881010507190029FF19
:100D0000150026FF009506750881000508190129C0
:100D100005950575019102950175039101C0112496
:100D20001FBECFEFDAE0DEBFCDBF04B603FE27C0A3
:100D30008091B4029091B502A091B602B091B70231
:100D40008730904BA740B04BD1F41092B402109270
:100D5000B5021092B6021092B70214BE84B7877F14
:100D600084BF0FB6F894A895809160008861809345
:100D70006000109260000FBEE0E0F8E3099511E01A
:100D8000A0E0B1E0EAECF8E502C005900D92A239CE
:100D9000B107D9F722E0A2E9B1E001C01D92A43B5E
:100DA000B207E1F70E9432260C94FC2B0C94000051
:100DB000FF93EF93E0919201F0919301309709F046
:100DC0000995EF91FF910895FC018591803011F014
:100DD000EFDFFBCF0895FF27E0E230E247FF0CC0D2
:100DE000419597FF09C0EDE26095709580959095CB
:100DF000611D711D811D911D27FF02C0219530E3EA
:100E000050E2AA27660F771F881F991FAA1FA417F1
:100E100010F0A41B63955A95A9F7AA3008F0A95FB2
:100E2000A05DAF93F395611571058105910541F7BB
:100E3000ED3211F4EF93F395F21718F43F93F39515
:100E4000FBCF8F91B5DFFA95E1F70895E991F9911C
:100E50008591803021F0853219F0AADFF9CF08950D
:100E600020E0E89455915532C1F3503311F4689461
:100E700055915A3348F4505390F3220F022E220F0B
:100E8000220F200D250FF4CF0EF421958991999111
:100E9000533619F3533729F1533559F1BC018827DB
:100EA0009927E8945C3621F4899199916894559139
:100EB000543639F446EF7EF077FF0DC08FEF9FEF89
:100EC0000AC055374AE039F0583540E121F0523632
:100ED00042E009F00895FF93EF937DDFEF91FF91DA
:100EE000B7CFFF93EF93FC0181918030B9F360DFBE
:100EF000FBCFFF93EF9368DFF1CFDF93CF93CDB7B5
:100F0000DEB72596A3DFCF91DF9108950895089568
:100F10000C94870784B18F6184B93E98469A3F9AB2
:100F200080B3806F80BB8F9A479884B1806684B904
:100F300085B1806685B9AEE9B1E011961C921E922A
:100F400013961C921E92129715961C921E9214973D
:100F500017961C921E92169719961C921E9218971D
:100F6000E4E9F1E011821082138212821582148268
:100F70001782168211861086B093AB01A093AA0146
:100F8000F093A901E093A8010C946A09AF92BF9273
:100F9000DF92EF92FF920F931F93CF93DF93809195
:100FA000A8019091A9012091AA013091AB01309341
:100FB000A9012093A8019093AB018093AA01D0E0EE
:100FC000C0E001E010E095B1907EC3FD8AC028E04A
:100FD0008C2F8770892B822B85B9B8010C2E02C00B
:100FE000660F771F0A94E2F75B01A094B09490E03B
:100FF00080E040E021B32F70242B206821BBEAE081
:10100000EA95F1F700C0A091A801B091A901A80F3D
:10101000B91F2D913C9126233723232B09F0479AA2
:10102000F5E3FA95F1F70000D6B48F982AE02A95F7
:10103000F1F700C02091AA013091AB017901E80ECF
:10104000F91EF701369B4FC0A081B181AA21BB21B7
:10105000B183A08356B55D19563070F0A091A801F8
:10106000B091A901A80FB91F0D90BC91A02D280F18
:10107000391FF901B183A083FAE1FA95F1F700C0B5
:1010800047988F9AEBE2F1E03197F1F700C000004A
:10109000405F0296403509F0ADCFA091AA01B09112
:1010A000AB01E091A801F091A9011A962D913C9114
:1010B000828593852817390711F00E94621B2196BB
:1010C000C031D10509F07FCF0E94740981E0DF9122
:1010D000CF911F910F91FF90EF90DF90BF90AF9055
:1010E000089520E175CFA081B181A62BB72BB0CF99
:1010F00090E0880F991F2091AA013091AB01820FD7
:10110000931FFC01808191810895EF92FF920F93CC
:101110001F93CF93DF938BEB90E00E94E406D0E027
:10112000C0E085E1E82E81E0F82E0CEA10E08C2F7B
:101130000E9478080E943B19FF92EF929F938F9331
:10114000DF93CF931F930F930E947D0721968DB756
:101150009EB708960FB6F8949EBF0FBE8DBFC530E0
:10116000D10529F7DF91CF911F910F91FF90EF905B
:1011700008951F921FB61F9211248F939F93EF9390
:10118000FF938091B900887F8038C1F038F48823BC
:1011900009F44BC0803679F081E022C0883A11F022
:1011A000883BD1F7E091AD01F0E0EF56FD4F808133
:1011B0008093BB0031C01092AC01EECF8091AC01A6
:1011C000811122C08091BB008093AD018091AD015F
:1011D0008031C0F01092AD0180E091E09093AC01BD
:1011E0009091BC008295880F880F807C892B856840
:1011F0008093BC00FF91EF919F918F911F901FBE34
:101200001F90189581E0E9CFE091AD01F0E0809169
:10121000BB00EF56FD4F80838091AD0190E00196B9
:101220008F7099278093AD01B7CF1092BC00B4CFD7
:101230000C94860781E0089581E008950C941C09C0
:1012400008950C9420091F93CF93DF9300D000D012
:101250000F92CDB7DEB749835A836B833091C301B8
:1012600089819A8131111DC06623B9F02223A9F02A
:101270000E94DA17182F682F89819A810E94871798
:1012800069817A81812F0F900F900F900F900F90AE
:10129000DF91CF911F910C94F9090E94B317182F79
:1012A000EFCF0E94DA1769817A81EDCFFC01262FFA
:1012B000408151816281738184810C942309CF9391
:1012C000DF93EC0160E00E945609BE01DF91CF91EF
:1012D0000C9421090E944819811102C00E94EC1946
:1012E0000E94EA090C9418090C94880708950E943A
:1012F000F1120E9476092FEF84E39CE02150804098
:101300009040E1F700C000000C94A11B0F931F93C5
:10131000CF93DF93EC0161E00E9456098C01BE017E
:101320000E941E09882311F1BE01C8010E94710CA0
:101330008823E1F0BE01C8010E94C30C8823B1F0EC
:10134000BE01C8010E94E60D882381F08A818823AE
:1013500041F101308CE5180779F00F3D8CE5180755
:10136000E9F001151C45E9F40E94770980E0DF915E
:10137000CF911F910F91089590915B02892F8E7FDD
:1013800090FF816080935B0280FF05C083E292E062
:101390000E94E406EBCF81E192E0FACF0E94EC19C3
:1013A000E5CFCE01DF91CF911F910F910C941A09D7
:1013B00008950C94D80981E00895CF93C82F0E9416
:1013C000DB09882319F0C1FD03C02E9ACF9108953F
:1013D0002E98FCCF269A2E9A0895CF93C82F0E945C
:1013E000D9098C2FCF910C94DD0990E080E008950D
:1013F0000895E72FF0E095E0899FE00DF11D11249D
:1014000084E0EE0FFF1F8A95E1F7E60FF11DEE0F66
:10141000FF1FEF52FF4F859194910895FC01EE0F4D
:10142000FF1FEC5CFD4F859194910895CF93DF935E
:101430000E94F9090E942B0BEC01811520E592070F
:1014400008F042C0811530E4930708F0BDC0883E23
:10145000910528F5803E910508F09DC0883A9105D8
:1014600088F4853A910508F08FC08130910509F420
:1014700092C0009709F48FC0049708F08CC0D0E0A8
:10148000C0E089C08F3B910508F489C0805C910958
:10149000C03CD105A0F30E940E0AEC017CC081156E
:1014A000904250F4C11581E0D80708F074C0C03FE5
:1014B000D10528F3D0656FC0C11590E3D90708F0B6
:1014C00079C0CE019F70E7CF811525E5920758F5C9
:1014D000811534E5930708F0A6C0811542E594070D
:1014E00050F4C11581E5D80708F471C0DC2FCC2772
:1014F000C16FD06A50C0982F969596959E01237023
:101500003327C115D34508F07FC0C1E0D0E002C049
:10151000CC0FDD1F2A95E2F720E2929FC001112433
:10152000C82BD92B6FC0C11589E5D807A8F4C11500
:1015300098E5D90708F07CC0C11526E5D20708F068
:101540009ECF8C2F0E94C20BC82FD0E0DC2FCC275F
:10155000CC27DF71D0621FC0C1153AE5D30708F46C
:101560006CC0CE0190568115904208F088CF8D2F27
:101570008F710E94C20B90E0982F882788279F7157
:101580009C012C2BE901E6CFC55AD0E0CC5BDE4FA5
:10159000C881D0E0D064CE01DF91CF910895C85AC0
:1015A000D0E0CC0FDD1FCA5EDE4F0990D881C02D80
:1015B000D464F1CFCE019927D3FF03C0EC01D86CDE
:1015C000EACFEC01D06CE7CFDF70D06AE4CFCE0178
:1015D000E4E096958795EA95E1F783702C2F2695A0
:1015E0002695237090E2299F90011124382B8C2F8F
:1015F0008370C1E0D0E002C0CC0FDD1F8A95E2F716
:10160000C22BD32BDC68C7CFC1E0D0E002C0CC0F27
:10161000DD1F2A95E2F730E2939FC0011124C82B09
:10162000D92BDA68B8CFD82FCC27C46FD06AB3CF04
:10163000DC2FCC27C06FD06AAECF8C2F8F700E946A
:10164000C20B34E0D695C7953A95E1F7CF709C2F41
:10165000EC01D069A0CF82389105B1F1B0F48133AB
:10166000910509F475C048F48932910509F469C0FF
:101670008A32910509F473C008958533910509F400
:1016800059C08933910501F10895833E9105A9F16F
:1016900038F4803E9105F9F0823E910549F10895B4
:1016A000863E9105A9F1873E9105C9F1843E9105D9
:1016B00019F52091A60221FF1FC08091A50284FD8B
:1016C00014C087EE90E008952091A5022370A1F048
:1016D00080EE90E008952091A50220FD47C0309152
:1016E000A60230FF09C024FF44C090E080E004C09F
:1016F0002091A50222FDF7CF08952091A50222FD99
:101700003BC03091A60230FDE3CF24FFF5CFEDCFF3
:101710002091A50223FFF0CF24FDE7CFD2CF209167
:10172000A50223FD2CC03091A60231FFEECF84EE3E
:1017300090E008952091A50225FFDECF89E290E098
:1017400008952091A50225FFD7CF85E390E0089565
:101750002091A50226FFD0CF8AE290E00895209143
:10176000A50226FFC9CF81E390E0089589E390E0C8
:10177000089583EE90E0089582EE90E0089586EE5D
:1017800090E008959091A50292FF06C0282F28713D
:101790002830F9F4877F846093FF06C0282F2871D2
:1017A0002831F1F4877E84612091A60220FF06C0D3
:1017B000382F38713830D9F4877F816021FF06C017
:1017C000282F28712831D1F4877E816194FD877E8E
:1017D0000895282F24712430F9F68B7F8860DCCFA0
:1017E000282F2471243101F78B7E8861DDCF382FBB
:1017F0003171313019F78E7F8860E0CF282F217149
:10180000213121F78E7E8861E1CF0F931F93CF9313
:10181000DF93C42FD22FFC0182818823C9F040932B
:10182000B0010E94561B9093AF018093AE0180E2FD
:101830008C0F883008F050C0C77081E001C0880F5D
:10184000CA95EAF7DF91CF911F910F910C94751013
:101850001091B001141335C08091AE019091AF0189
:101860000E946E1B8F3A910560F5C0E2CD0F1D17E7
:10187000B9F080E2810F883040F4177081E001C038
:10188000880F1A95EAF70E947C10C83048F481E06E
:101890009D2F977001C0880F9A95EAF70E947510E6
:1018A000802F0E946210C830B8F4D77081E001C068
:1018B000880FDA95EAF7DF91CF911F910F910C9481
:1018C0007C1080E28C0F883038F4C77081E001C052
:1018D000880FCA95EAF7EFCFDF91CF911F910F9153
:1018E00008950F939C01CB01243F4CE5340759F137
:1018F000A8F4293DFCE53F0701F12A3D4CE53407FA
:10190000D1F1283D3C4591F406E221EE41EE68ED2F
:101910007CE50E94050C80E00F910895263FFCE5D0
:101920003F07E9F0B0F0273F3C45F9F0FC01828128
:10193000882339F11092B001EFCF07E225EE45EE92
:1019400069ED7CE5E6CF06E221EE40EE64EF7CE552
:10195000E0CF07E225EE44EE65EF7CE5DACF06E264
:1019600021EE42EE66EF7CE5D4CF07E225EE46EEAF
:1019700067EF7CE5CECF08E221E045EE6AED7CE53D
:10198000C8CF81E0C9CFCF93DF93EC01FB01828107
:10199000882309F419C1C230FCE5DF07C0F1C63164
:1019A0009CE5D90730F09E012B5F3C45293031057D
:1019B00070F50E945B199093A6028093A502C03136
:1019C000ECE5DE0709F4CFC008F05BC0C8308CE559
:1019D000D80709F4B6C088F5C430ECE5DE0709F491
:1019E000A8C0C0F4C2308CE5D80709F49CC080912F
:1019F000A5028260C330DC4509F498C08091A5023D
:101A00009091A6020E9469190E94F11280E0DF9174
:101A1000CF9108958091A5028061C630ECE5DE0784
:101A200009F484C08091A5028860C730DC4508F4C1
:101A30007DC08091A502806279C0CC308CE5D8074A
:101A400009F489C070F48091A5028C60CA30ECE57D
:101A5000DE0709F46BC008F478C08091A5028E7F80
:101A600065C0CE308CE5D80709F479C08091A50215
:101A70008B7FCF30DC4508F459C08091A5028F7E62
:101A800055C0CC3FECE5DE0709F457C030F5C33153
:101A90008CE5D80709F46FC078F4C131ECE5DE07B6
:101AA00009F465C0C231DC4509F0A8CF0E94F112EB
:101AB0008091A5028F773AC0C5318CE5D80709F42B
:101AC00062C008F476C08091A6028160CB3FDC45FD
:101AD00009F094CF8093A60291CFC115FDE5DF07F1
:101AE00009F44DC088F48091A6028D7FCE3F9CE51D
:101AF000D90781F38091A6028E7FCF3FDC4550F35A
:101B00008091A6028360E6CFC230FDE5DF0709F4CD
:101B100059C008F444C080E0C330DD4509F06ECF01
:101B20000E94EE196BCF8091A50281608093A5027F
:101B300065CF8091A5028460F9CF8091A602826072
:101B4000C9CF8091A5028064F1CF0E94F1128091EB
:101B5000A5028068EBCF8091A5028D7FE7CF8091B1
:101B6000A502877FE3CF8091A5028F7DDFCF809193
:101B7000A5028F7BDBCF8091A502837FD7CF809199
:101B8000A6028C7FA7CF8091A50282FB992790F9AE
:101B900021E0922790FB82F990FB83F9C7CF8091D7
:101BA000A602982F909591708E7F892B90FB81F9DA
:101BB00091CF0E94F1129091A502892F97FB87F98E
:101BC0008058B4CF81E0ACCF81E021CFCF93DF93B9
:101BD000EB0186319C4511F50E946F189A8199237B
:101BE00099F08A7A91E009F490E09093B101811123
:101BF00009C089E20E944A180E94BB1880E0DF9168
:101C0000CF91089585E3F6CF8091B101811104C091
:101C100089E20E945118F0CF85E3FBCF81E0EFCF3E
:101C20009093B7018093B6010895E091B601F091C9
:101C3000B701309721F00190F081E02D099480E008
:101C40000895EF92FF920F931F93CF93DF93EC01D0
:101C5000E091B601F091B701309709F446C0809148
:101C60001401882341F08091A50287FF04C0888178
:101C7000898385E088830280F381E02DCE01099578
:101C800080915B0282FF31C080FF04C08CE392E050
:101C90000E94E40610E000E086E3E82E82E0F82EE1
:101CA00080915B0280FF0EC0FE01E00FF11F80817A
:101CB0001F928F93FF92EF920E947D070F900F90DB
:101CC0000F900F900F5F1F4F0830110549F780915B
:101CD0005B0280FF0AC084E392E0DF91CF911F9105
:101CE0000F91FF90EF900C94E406DF91CF911F913C
:101CF0000F91FF90EF900895E091B601F091B70138
:101D0000309739F022E0DC012C930480F581E02D3E
:101D1000099408952091B4013091B501281739072D
:101D200071F09093B5018093B401E091B601F09108
:101D3000B701309721F00680F781E02D09940895CE
:101D40002091B2013091B3012817390771F09093B7
:101D5000B3018093B201E091B601F091B7013097E1
:101D600021F00084F185E02D0994089585B78068FD
:101D700085BF85B7806885BF0895089508950C9440
:101D8000BD0E08950C94C10E0E94B60E0E94BE0EA8
:101D90000C94BF0E81E008950C94CA0E0895089526
:101DA0000E944D1B0E948A070E94C51B0C94C20E04
:101DB000CF93C82F80915B0282FF1EC080FF1CC0A2
:101DC00085E592E00E94E40680915B0280FF14C0EA
:101DD0001F92CF9380E592E09F938F930E947D079F
:101DE00080915B020F900F900F900F9080FF04C0C6
:101DF0008EE492E00E94E4068C2FCF910C94ED09C2
:101E00009F92AF92BF92CF92DF92EF92FF920F9389
:101E10001F93CF93DF93CDB7DEB72A970FB6F89411
:101E2000DEBF0FBECDBF0E94CE0E0E94CF0E0E941D
:101E3000C6070E94CC0E882309F470C059EBA52E6A
:101E400051E0B52E10E000E0902E802F0E9478081F
:101E50006C01F501E190F1905F01E816F90609F4D3
:101E600057C080915B0281FD0E94850897012C2557
:101E70003D2580E0EE24E394F12CA9014E215F2161
:101E8000452B09F43FC08E839F82CE20DF2081E066
:101E9000CD2809F480E088870E94561B8160782F46
:101EA0009A8789874E815F8168858A850E94B10FF4
:101EB000000F111FF801E754FE4F80819181E82641
:101EC000F926F182E0820E94F21D0E94150E909187
:101ED000B8018917A1F10E94150E8093B8012A96C6
:101EE0000FB6F894DEBF0FBECDBFDF91CF911F912B
:101EF0000F91FF90EF90DF90CF90BF90AF909F90A9
:101F00000C94D80E8F5FEE0CFF1C803109F0B5CF1A
:101F10000F5F1F4F0530110509F096CF8FEF8983B2
:101F20008A831B820E94561B8160782F9D838C833D
:101F300049815A816B818D810E94B10FC4CF2A964D
:101F40000FB6F894DEBF0FBECDBFDF91CF911F91CA
:101F50000F91FF90EF90DF90CF90BF90AF909F9048
:101F60000895CF93DF93CDB7DEB72B970FB6F894D4
:101F7000DEBF0FBECDBF4F83588769877A878B87B7
:101F80001E821D8285E0FE013796DE0111960190CA
:101F90000D928A95E1F749815A816B817C818D810F
:101FA0009E812B960FB6F894DEBF0FBECDBFDF919A
:101FB000CF910C946715FC01808191810C941C18C1
:101FC000CF93C82F882309F44CC08CEF8C0F813A33
:101FD000C8F48C2F0E94C022811143C06C2F8091C5
:101FE0000001909101010E94071A882329F08C2F8B
:101FF0000E9451180E94BB188C2F0E944A18CF9142
:102000000C94BB1880E28C0F883048F4C77081E0D4
:1020100001C0880FCA95EAF70E947218F0CFEBE56D
:10202000EC0FE33040F4F0E0EB58FE4F808190E09D
:10203000CF910C948A0EE8E5EC0FE73150F4F0E014
:10204000EE0FFF1FE95BFE4F80819181CF910C94D1
:10205000A00EC03F30F08C2F0E946A1CCF910C94D0
:10206000551DCF910895882361F19CEF980F913A07
:1020700020F40E9451180C94BB1890E2980F9830ED
:1020800050F4877091E001C0990F8A95EAF7892F83
:102090000E947818F0CF9BE5980F933020F490E0E1
:1020A00080E00C948A0E98E5980F973120F490E028
:1020B00080E00C94A00E803F20F00E94D21C0C9473
:1020C000551D0895CF93C82F0E94E00FC93349F4DE
:1020D0002FEF87EE93E0215080409040E1F700C061
:1020E00000008C2FCF910C943310882321F00E9494
:1020F00072180C94BB180895882321F00E94781858
:102100000C94BB180895BF92CF92DF92EF92FF928A
:102110000F931F93CF93DF936C01D62FC72FFC0132
:10212000058102950F70128111110E948F180E9473
:102130006818E82E882391F01123D1F08C2F807F2E
:10214000803421F080E28D0F883090F082E00E9490
:1021500006190E94681891E0E82EE926BC2EB29478
:102160009FE0B922EB2DF0E0E250F44D0C94A02B4F
:10217000E12CF4CF0C2F0F70C07F11F00295007F7F
:102180001123A9F0002359F080E28D0F883010F060
:10219000D11109C0802F0E9472180E94BB188D2F88
:1021A0000E94E00F14C0802F0E948218F6CF8D2F5E
:1021B0000E943310002359F080E28D0F883010F018
:1021C000D1112CC0802F0E9478180E94BB182B2D93
:1021D0002850330B2430310520F40E94150E0E9444
:1021E000ED09EE2009F49EC10E94641880FD9AC199
:1021F000F60112820E945E180E94EB16C6010E9430
:10220000B3120E945E18DF91CF911F910F91FF9042
:10221000EF90DF90CF90BF900C940C17802F0E940E
:102220008818D3CFFC2FFF70FF2EC07FC03219F06B
:10223000F29480EFF822DD2369F0D13049F11123C7
:1022400091F1002351F1F601858180FFA8CF8F70B5
:10225000858323C0112381F0011106C00E94A218BA
:102260008F290E947510B3CF0130C1F70E94A218C8
:102270008F290E94A818ABCF011106C00E94B11887
:102280008F2D0E947C10A3CF013009F4A0CFF6CF90
:10229000112329F0063008F09ACF8F2DE2CF0530B8
:1022A00008F095CFEDCF002359F3D93349F4FFEF70
:1022B00027EE33E0F15020403040E1F700C000004D
:1022C0008D2F0E94331083CF8C2F86958695837037
:1022D00069F0813009F07BCF8D2F9C2F9370111105
:1022E00002C090E080E00E94A00E71CF8D2F9C2F45
:1022F0009370111102C090E080E00E948A0E67CFB7
:102300008D2F112329F00E946A1C0E94551D5FCF5A
:102310000E94D21CFACF8C2F837009F041C011119A
:1023200056CF4D2F429546954770440F440F0D2FC1
:102330000F7010E030E020E0042E04C0000F111FE9
:10234000221F331F0A94D2F760E070E0CB01D4FF64
:102350000FC06FE070E080E090E004C0660F771F70
:10236000881F991F4A95D2F7609570958095909532
:10237000C695C695C370602B712B822B932BC230F0
:1023800049F058F4C13019F00E949D1620CF0E94E8
:102390008B161DCF0E94AF161ACF0E94891617CF39
:1023A0008695112311F08C2F8170882309F40FCFAB
:1023B0004D2F429546954770440F440F0D2F0F70D7
:1023C00010E030E020E0042E04C0000F111F221F97
:1023D000331F0A94D2F760E070E0CB01D4FF0FC046
:1023E0006FE070E080E090E004C0660F771F881F08
:1023F000991F4A95D2F76095709580959095C695EE
:10240000C695C370602B712B822B932BC23049F081
:1024100058F4C13019F00E946217D9CE0E945017AB
:10242000D6CE0E947417D3CE0E94C516D0CECF70E0
:10243000112329F08C2F0E94EB168D2F12CF8D2F98
:102440000E947C108C2F0E940C17C1CED23F89F1C4
:1024500060F4D03FC9F0D13F29F1112309F442C003
:1024600001119DCE8C2F8F7121C0D33F39F1D43F04
:10247000A1F7112369F1CF718C2F0E94EB1663E055
:102480008C2F0E94F118A3CE112341F0053008F0E3
:102490009ECE8C2F8F710E942F1799CE063008F098
:1024A00096CEF7CF8C2F8F71112369F20E94EB1615
:1024B0008ECE8C2F8F711123C9F3C5CF112329F034
:1024C0008C2F8F710E94D61682CE0E94D1167FCE9D
:1024D00081E00E940619023008F479CE82E00E9461
:1024E000061975CE002359F0D93309F0E9CE8FEFE4
:1024F00097EEE3E081509040E040E1F7DFCE8C2F93
:102500008F71A1CF4C2F4F706D2FC6010E94F5091E
:102510000E9401165CCE4C2F4F706D2FC6010E9499
:10252000F80955CEDF91CF911F910F91FF90EF9059
:10253000DF90CF90BF9008950F931F93CF93DF93B9
:10254000EC01688179818A810E9426188C010E94A1
:1025500086170E948816B801CE01DF91CF911F9196
:102560000F910C948310CF93DF93EC018B819C81AE
:10257000892B29F08881998189238F3F59F4DF9134
:10258000CF910895CE010E949C12CE01DF91CF9190
:102590000C945F09CE010E9486098111F3CF0E943D
:1025A0006818882361F38A81882349F382E0DF91E8
:1025B000CF910C9406190E948F180E949F180E94B8
:1025C000BB180E94FE1E0E94551D90E080E00E94F4
:1025D0008A0E90E080E00C94A00E0E9458180C9493
:1025E000DB120E947F180C94ED12E92FE295EF7038
:1025F000E250EE3070F4F0E0E25FF34D0C94A02B6B
:10260000803F19F020F4883E20F481E00895843F53
:10261000E1F380E00895883EC0F3813FD1F7F5CF24
:1026200093FB882780F908950E941C180C94F512DA
:10263000CF93DF9300D000D00F92CDB7DEB70F90CD
:102640000F900F900F900F90DF91CF910895CF933F
:10265000DF9300D000D000D0CDB7DEB726960FB6FE
:10266000F894DEBF0FBECDBFDF91CF9108951F93C9
:10267000CF93DF93C091C40116E08091C5018C1304
:1026800004C0DF91CF911F910895D0E01C9FF0010D
:102690001D9FF00D1124EA53FE4F4081518162814C
:1026A0007381848195810E9427132196C770E5CF9D
:1026B0004091F6015091F7016091F8017091F90194
:1026C0008091FA019091FB010C9427131F93CF93F3
:1026D000DF938091FB01807FA9F48091F80188232A
:1026E00089F08091C401C091C5016091F60170919B
:1026F000F701A091F901B091FA01D62FD72316E086
:10270000C81304C0DF91CF911F91089590E01097F6
:1027100011F0DF3F19F401968770F2CF189F9001F6
:10272000199F300D1124F901EA53FE4F41814713DF
:10273000F2CF40814613EFCF42814111ECCF43816C
:1027400054814A1B5B0B4F3A510528F78091FB01DE
:102750008F7080618093FB01F901E553FE4F80810A
:102760008F708061808386EF91E00E94B312DF91C9
:10277000CF911F910C943713AF92BF92CF92DF92FB
:10278000EF92FF920F931F93CF93DF93CDB7DEB7F6
:1027900061970FB6F894DEBF0FBECDBF8C0185E008
:1027A000F801DE011D9601900D928A95E1F7F8017E
:1027B00040815181E28086EFC82E81E0D82E609161
:1027C000F9017091FA016115710509F461C19091E7
:1027D000F6012091F701892F82238F3F09F458C118
:1027E000A380B480F090F801F501E61BF70BFF2001
:1027F00009F4FCC08091FB01382F307FEF3AF105DE
:1028000008F0B2C0311179C0FE2C251323C09413F7
:1028100021C0E1101FC08F7080618093FB010E9476
:102820005813C6010E94B3128091FB01F801858301
:102830008F2D61960FB6F894DEBF0FBECDBFDF912E
:10284000CF911F910F91FF90EF90DF90CF90BF90AD
:10285000AF900895AB2829F0842F85238F3F09F08E
:1028600033C180E0F82FF170DF2E80FF3CC08091F3
:10287000C4012091C50136E0821315C04D875E87E3
:102880008D859E850E941C18292F22952F7022303D
:10289000F0F0243018F59F70F1F0F8019581907FE9
:1028A000D1F4D12C1EC090E0389FF001399FF00D7B
:1028B0001124EA53FE4F6181651306C060816413E1
:1028C00003C062816E110FC001968770D5CF9F70D3
:1028D00011F0882331F3805E883018F3C8010E941C
:1028E000B312FD2CA5CFEE2009F4A2CF8091FB01FD
:1028F00081608093FB01F12C9BCF251306C09413BC
:1029000004C0F801EE2009F48DC04D875E878D85E7
:102910009E850E941413882319F1EE2009F18091FD
:10292000FB01803270F02091F6013091F701388779
:102930002F831986BB86AA868C87CE0107960E94B4
:10294000B31286E0F801A6EFB1E001900D928A95EE
:10295000E1F70E9466130E945813FF24F39468CF96
:10296000C8010E94B312F9CF311113C07A2DB98A70
:10297000A88A6E2D89890E94181386EF91E00E9423
:10298000B31286E0F60111928A95E9F70E94581376
:10299000B2CF25130FC094130DC0E1100BC0F80186
:1029A0008583C8010E94B31286E0F60111928A95D0
:1029B000E9F73ECF4D875E878D859E850E94141373
:1029C000882371F2EE2061F28091FB01803208F4DD
:1029D000B8CF2091F6013091F7013A8329831B8209
:1029E000BD82AC828E83CE010196A9CFEF3AF1056C
:1029F00008F041C0FE2CEE2009F4B2CF25132AC006
:102A0000941328C08091FB0180FD1BC0982F907FFC
:102A1000C1F0F8018583903F31F0982F907F905F4F
:102A20008F70892B8583C8010E94B31286E0F8015C
:102A3000A6EFB1E001900D928A95E1F70E9458133C
:102A4000F7CE86E0F801A6EFB1E001900D928A95ED
:102A5000E1F7EECE4D875E878D859E850E9414132B
:102A600081116FCF8091FB0181608093FB01C801D0
:102A70000E94B312DDCE7A2DB98AA88A6E2D89897B
:102A80000E94181386E0F60111928A95E9F7D6CFD5
:102A9000EE2009F465CF4D875E878D859E850E9467
:102AA0001413F82E882309F45BCF86E0F801A6EF13
:102AB000B1E001900D928A95E1F786EF91E00E94D6
:102AC000DB0F0E946613BACF81E08E25CBCE1F9319
:102AD000CF93DF93CDB7DEB72C970FB6F894DEBF58
:102AE0000FBECDBF4F83588769877A878B879C87B6
:102AF000CE0107960E94BC13882369F08A859B85C6
:102B0000892B39F04F815885842F85238F3F09F019
:102B100071C016E05FC086E0FE013796DE011196B7
:102B200001900D928A95E1F78A859B85892B89F31F
:102B30008F81988589238F3F61F32091C50130E013
:102B4000C9010196877099274091C4014817190659
:102B500071F40E94F1121092C5011092C40186E036
:102B6000E6EFF1E0DF011D928A95E9F7D2CF96E01A
:102B7000929FD001939FB00D1124AA53BE4FFE0126
:102B8000319601900D929A95E1F78093C5010E94CC
:102B90003713BFCF819FC00111248A539E4F0E94DB
:102BA000BC138823E9F0E091C4011E9FF0011124B9
:102BB000EA53FE4F40815181628173818481958106
:102BC0000E9427138091C40190E001968770992795
:102BD0008093C4018091C4019091C5018913DACF1B
:102BE0002C960FB6F894DEBF0FBECDBFDF91CF910C
:102BF0001F91089569857A858B859C850E9427138E
:102C000088CFEF92FF920F931F93CF93DF938C01A6
:102C1000892B81F0F12CEE24E394E8012196F80150
:102C20008491843770F4843008F05FC08130B1F053
:102C30008230A1F1DF91CF911F910F91FF90EF9022
:102C40000895853709F44CC008F43DC09CE7980FFF
:102C5000903780F78F770E94331049C00E5F1F4F67
:102C6000FE01849190E2980F983060F48770FE2DF9
:102C700001C0FF0F8A95EAF78F2F0E9492180E94D9
:102C8000BB1802C00E94E00F8F2D815030F2EFE997
:102C9000FFE03197F1F700C00000F7CF0E5F1F4F44
:102CA000FE01849190E2980F983050F48770FE2DC9
:102CB00001C0FF0F8A95EAF78F2F0E949818DFCF87
:102CC0000E943310E1CF0E5F1F4FFE01C491C1502F
:102CD000D8F28FE99FE00197F1F700C00000F7CF2D
:102CE0000E5F1F4FFE01F490CFCF0E94E00F8E01C8
:102CF000CBCF08950C9479160E947A166093320215
:102D00007093330280933402909335020C94DB125B
:102D100008950C947C160F931F930091320210912A
:102D200033022091340230913502602B712B822BBB
:102D3000932B1F910F910C947C160F931F9300916E
:102D40003202109133022091340230913502602317
:102D50007123822393231F910F910C947C160F9360
:102D60001F9300913202109133022091340230916E
:102D7000350260277127822793271F910F910C94AA
:102D80007C160C9479160C94C1160E94C31660939D
:102D90002E0270932F0280933002909331020C9494
:102DA000DB1260E070E0CB010C94C5160F931F930B
:102DB00041E050E060E070E08A019B0104C0000F38
:102DC000111F221F331F8A95D2F7C901B8011F9125
:102DD0000F910C94C5160F931F9341E050E060E0F3
:102DE00070E004C0440F551F661F771F8A95D2F705
:102DF00080912E0290912F02A0913002B091310269
:102E00008A019B01082B192B2A2B3B2BC901B801E6
:102E10001F910F910C94C5160F931F9341E050E042
:102E200060E070E004C0440F551F661F771F8A954D
:102E3000D2F7CB01BA01609570958095909500917D
:102E40002E0210912F022091300230913102602326
:102E50007123822393231F910F910C94C5160F9316
:102E60001F9341E050E060E070E004C0440F551F44
:102E7000661F771F8A95D2F780912E0290912F02BC
:102E8000A0913002B09131028A019B0108271927D5
:102E90002A273B27C901B8011F910F910C94C51631
:102EA0000F931F9300912E0210912F022091300258
:102EB00030913102602B712B822B932B1F910F913C
:102EC0000C94C5160F931F9300912E0210912F02A0
:102ED00020913002309131026023712382239323A9
:102EE0001F910F910C94C5160F931F9300912E0202
:102EF00010912F022091300230913102602771270A
:102F0000822793271F910F910C94C51608959295CF
:102F1000907F890F982F977041E001C0440F9A95D8
:102F2000EAF786958695869595E0899FF0011124AC
:102F3000E450FE4F30E020E070E05191DF01119746
:102F4000CB01022E02C0969587950A94E2F7817014
:102F500081958527842385278C932F5F3F4F2530CC
:102F6000310559F708959295907F890F982F9770A2
:102F700086958695869525E0829FF0011124E45080
:102F8000FE4F50E040E080E0219130E0092E02C089
:102F9000369527950A94E2F721703327042E01C055
:102FA000220F0A94EAF7822B4F5F5F4F453051059D
:102FB00059F70895BF92CF92DF92EF92FF920F934D
:102FC0001F93CF93DF938C01C0902E02D0902F02DD
:102FD000E0903002F0903102809132029091330201
:102FE000A0913402B0913502C82AD92AEA2AFB2AD4
:102FF000CFE1D0E0BC2ED701C6010C2E04C0B6959F
:10300000A795979587950A94D2F780FD0EC02197D2
:1030100088F7B12C8B2DDF91CF911F910F91FF90ED
:10302000EF90DF90CF90BF900895B8018C2F0E9451
:10303000160A019761F3EECFCF93DF93EC010E9464
:10304000DA17BE01DF91CF910C94160A1F93CF932C
:10305000DF93EB019091C301992331F0CB01DF9114
:10306000CF911F910C941C18882379F0CB010E94FA
:10307000DA17182F682FCE010E948717BE01812F03
:10308000DF91CF911F910C94160ACB010E94B317C8
:10309000182FF4CF682F80910001909101010C94BA
:1030A000A91A682F80910001909101010C94B41A23
:1030B00080910001909101010C94BF1A8091360219
:1030C0008595859585950895809136028770089538
:1030D00090913602977081E009F480E00895809124
:1030E0005A02089590915A02892B80935A020895AA
:1030F000809590915A02982390935A0208951092C5
:103100005A02089590915902892B8093590208958B
:1031100080959091590298239093590208951092A6
:103120005902089590915802892B8093580208956E
:103130008095909158029823909358020895109288
:103140005802089580913702089508950C94A518A7
:1031500090913702981721F0809337020C94A618AB
:10316000089580913702882329F01092370280E079
:103170000C94A6180895E0910001F091010180914E
:103180005A028083E0910001F091010180819091C9
:103190005902892B8083E0910001F0910101808127
:1031A00090915802892B808390913702992381F066
:1031B000E0910001F09101018081892B8083809151
:1031C0000001909101010E94F31981110E94B11830
:1031D00080910001909101010C94210E08950C94AE
:1031E000EE1898E0899F90011124622B60933602BB
:1031F0000E94EB16809136028595859585950C94F5
:10320000EF181092360280E00C94EF18909136027D
:103210008095892380933602282F277071F4282FF8
:10322000082E000C330B9217130639F085958595FF
:1032300085950E940C170C940119089590939301A1
:10324000809392010895829590E09C01220F331F94
:10325000220F331F2C7C95958795959587958373C1
:10326000282B30E0C901880F991F8A7A3595279558
:103270002575822B0895CF93DF93D92F0E942319B0
:10328000C82F8D2F0E9423199C2FDF91CF91089575
:1032900090E080E00E94C22B21E08C3E9E4F09F01E
:1032A00020E0822F089582E090E00C94BA2B83E016
:1032B00090E00C94BA2BCF9384E090E00E94BA2B5C
:1032C000C82F81E290E00E94BA2B982F8C2FCF91CB
:1032D0000895CF93C92F682F84E090E00E94C82BF7
:1032E0006C2F81E290E0CF910C94C82BAB01BC0114
:1032F0008FE090E00C94DA2BAB01BC0183E190E00D
:103300000C94DA2B60E070E0CB010C947C1960E047
:1033100070E0CB010E9476190C9482196CEE7EEF5E
:1033200090E080E00E94E62B60E082E090E00E9466
:10333000C82B60E083E090E00E94C82B109232021C
:1033400010923302109234021092350260E084E051
:1033500090E00E94C82B60E081E290E00E94C82BC0
:1033600060E085E090E00E94C82B60E086E090E09D
:103370000E94C82B6FEF87E090E00E94C82B40E0CE
:1033800050E0BA0188E090E00E94DA2B60E08DE026
:1033900090E00E94C82B40E050E0BA0188E190E044
:1033A0000E94DA2B60E087E190E00E94C82B40E0A9
:1033B00050E0BA018CE190E00E94DA2B60E080E2FC
:1033C00090E00E94C82B40E050E0BA0188E190E014
:1033D0000E94DA2B0C9487190C948E19682F8EE0BA
:1033E00090E00C94C82BFC01329680911401882344
:1033F00021F08091A5029EE187FF96E080E0915048
:1034000008F4089521912223D1F38F5FF8CF66232A
:1034100001F1209114012223F1F02091A50227FF50
:103420001AC0462F4695469546954E3190F46770E2
:1034300021E030E002C0220F331F6A95E2F7840FCB
:10344000911DFC01828190E02823392381E0232B08
:1034500069F480E00895FC013296089621912617C0
:1034600021F0E817F907D1F7F4CF81E008959C0126
:10347000FC0132969FEF80E04191461751F09F3F4B
:1034800019F4411101C0982F8F5F8630A9F79F3F33
:1034900009F40895290F311D97FD3A95F9016283CA
:1034A0000895FC01329608962191261303C0DF018E
:1034B00011971C92E817F907B9F70895E62FE695DA
:1034C000E695E695EE3170F4E80FF92FF11D67707F
:1034D00021E030E001C0220F6A95EAF78281822B59
:1034E0008283089580915B0280FF0CC01F926F93CE
:1034F00086E892E09F938F930E947D070F900F9034
:103500000F900F900895E62FE695E695E695EE313B
:1035100078F4E80FF92FF11D677021E030E001C069
:10352000220F6A95EAF72095828128232283089545
:1035300080915B0280FF0CC01F926F9388E692E03F
:103540009F938F930E947D070F900F900F900F9085
:10355000089520911401222329F02091A50227FD2E
:103560000C945E1A0C94371A20911401222329F02E
:103570002091A50227FD0C94831A0C94511AFC018A
:10358000329680911401882351F08091A50287FF23
:1035900006C08EE1DF011D928A95E9F7089586E065
:1035A000F9CF089508950C94D21A0E94D31A8091ED
:1035B000AB02843049F110925C0288E190E020E493
:1035C0000FB6F894A895809360000FBE209360001A
:1035D00080E00E94ED090E94D31A83B7817F846046
:1035E00083BF83B7816083BF7894889583B78E7FCC
:1035F00083BF0FB6F894A89580916000886180938E
:103600006000109260000FBE08950895CF930E944D
:10361000D11A0E94C6070E94051BC0E08C2F0E9491
:103620007808892B31F4CF5FC530C1F780E0CF91A6
:10363000089581E0FCCF08950C941B1B0E94F112A9
:103640000E94150E0E94ED090C941C1B1F921FB6C0
:103650001F9211248F939F93AF93BF9380915C022D
:10366000811113C08091A1029091A202A091A302A6
:10367000B091A4024196A11DB11D8093A102909327
:10368000A202A093A302B093A402BF91AF919F9115
:103690008F911F901FBE1F90189582E084BD93E00C
:1036A00095BD9AEF97BD80936E0008952FB7F8945B
:1036B0008091A1029091A202A091A302B091A402D4
:1036C0002FBF08952FB7F8946091A1027091A202C4
:1036D0008091A3029091A4022FBF08959C014FB73F
:1036E000F8948091A1029091A202A091A302B091BE
:1036F000A4024FBF821B930B089578941F921FB6AC
:103700001F9211248F939F93AF93BF938091A10237
:103710009091A202A091A302B091A4020196A11DD2
:10372000B11D8093A1029093A202A093A302B09333
:10373000A402BF91AF919F918F911F901FBE1F90C8
:10374000189581E08093E00080E28093D800109289
:10375000C9008FE19EE40197F1F700C0000087E007
:1037600090EBDC018093B4029093B502A093B60273
:10377000B093B70288E19CE00FB6F894A8958093C7
:1037800060000FBE90936000FFCF0E944819811126
:1037900002C00E94EC190E94531980935B020E94A0
:1037A0005B199093A6028093A5020E945719682F77
:1037B00070E090E080E00E94891660912E02709186
:1037C0002F0280913002909131020C94C3168091A7
:1037D000630280FF12C06091070185E0689FB0011D
:1037E0001124759567957595679560387105A8F5ED
:1037F00061157105A1F1862F089581FF09C06091BF
:10380000070185E0689FB001112475956795EDCF9C
:103810006091070182FD0AC0809162028823D1F085
:103820009091060160910701891728F085E0689F53
:10383000B0011124DACF869FB001112485E0869F64
:103840009001879F300D1124692F70E0C9010E94FB
:103850008C2BCBCF65E070E0CECF8FE7089581E071
:1038600008958091630280FF0CC06091030170E0B5
:1038700075956795759567956115710549F1862F61
:10388000089581FF06C06091030170E0759567950A
:10389000F3CF6091030182FD0BC0909161029923E7
:1038A000A1F06091020180910301961738F0682F12
:1038B00070E06038710500F38FE70895899FC001BB
:1038C000112470E00E948C2BF4CF61E070E0D7CF20
:1038D00081E00895803F31F40E94E71B8195809339
:1038E00067020895813F19F40E94E71BF8CF823FD9
:1038F00031F40E94E71B8195809366020895833F0F
:1039000019F40E94E71BF8CF893F29F40E94311C6B
:103910008093680208958A3F21F40E94311C8195AA
:10392000F7CF8B3F31F40E94311C8195809369025F
:1039300008958C3F19F40E94311CF8CF843F31F474
:10394000809165028160809365020895853F21F42E
:10395000809165028260F7CF863F21F480916502F5
:103960008460F1CF873F21F4809165028860EBCFBE
:10397000883F21F4809165028061E5CF8D3F31F46D
:103980008091630281608093630208958E3F21F4E9
:10399000809163028260F7CF8F3FB9F78091630215
:1039A0008460F1CF90916602803F59F48091670264
:1039B00087FF0DC01092670291110BC01092620236
:1039C00008C0813F81F48091670218169CF3992307
:1039D00081F08091680290916902892B09F064C09E
:1039E000109261020895823F49F497FFF0CF109240
:1039F0006602809167028111ECCFE0CF833F19F41A
:103A00001916ACF3E4CF20916802893F29F412160D
:103A1000F4F610926802DBCF8A3F19F427FFD7CF64
:103A2000F8CF209169028B3F29F427FFD0CF109265
:103A30006902CDCF8C3F19F41216CCF3C8CF843F66
:103A400031F4809165028E7F80936502C0CF853FFF
:103A500021F4809165028D7FF7CF863F21F480911C
:103A600065028B7FF1CF873F21F480916502877FCC
:103A7000EBCF883F21F4809165028F7EE5CF8D3FAB
:103A800031F4809163028E7F80936302A0CF8E3FDA
:103A900021F4809163028D7FF7CF8F3F09F097CF9C
:103AA000809163028B7FF0CF089580915B0283FF4A
:103AB0007EC08BEC92E00E94E406809165021F922A
:103AC0008F9386EC92E09F938F930E947D0784EC06
:103AD00092E00E94E40680916602282F082E000CD6
:103AE000330B3F938F9381EC92E09F938F930E94CF
:103AF0007D078FEB92E00E94E40680916702282FF9
:103B0000082E000C330B3F938F938CEB92E09F9326
:103B10008F930E947D078AEB92E00E94E4068091D9
:103B20006802282F082E000C330B3F938F9387EBEE
:103B300092E09F938F930E947D0785EB92E00E9415
:103B4000E40680916902282F082E000C330B3F9366
:103B50008F9382EB92E09F938F930E947D078FEA71
:103B600092E00E94E406809162021F928F938CEA99
:103B700092E09F938F930E947D078AEA92E00E94D1
:103B8000E406809163021F928F9387EA92E09F93ED
:103B90008F930E947D0784EA92E00E94E4068DB72D
:103BA0009EB74C960FB6F8949EBF0FBE8DBF0E9475
:103BB000561B9C019091660280916702982B21F020
:103BC0003093600220935F029091680280916902B5
:103BD000982B21F030935E0220935D0284E692E000
:103BE0000C947C0EEF92FF920F931F93CF93DF9371
:103BF00000D000D000D0CDB7DEB786E0E4E6F2E03A
:103C0000DE01119601900D928A95E1F7E09066022F
:103C1000F0906702009168021091690210926602AA
:103C20001092670210926802109269028E2D8F29FD
:103C300091F080915F02909160020E946E1BAC0136
:103C400090916202992309F43FC080910801841782
:103C5000150608F447C0802F812B91F080915D02FA
:103C600090915E020E946E1BAC01909161029923BB
:103C700009F477C0809104018417150608F47FC009
:103C80008091660290916702892B90916802892B3E
:103C900090916902892B11F00E94551D86E0FE016A
:103CA0003196A4E6B2E001900D928A95E1F726964E
:103CB0000FB6F894DEBF0FBECDBFDF91CF911F913D
:103CC0000F91FF90EF900895209109018AE0289FBD
:103CD000900111242417350708F0BDCF9F5F909302
:103CE000620202C09F3FD1F7EE2059F00E94E71B0D
:103CF0009FEF1E140CF491E0899F802D1124809376
:103D00006602FF2059F00E94E71B9FEF1F140CF47E
:103D100091E0899F802D1124809367023091660283
:103D2000332309F498CF20916702222309F493CF1B
:103D300045EB3403C0011124992359F09093660296
:103D400045EB240390011124332339F030936702AB
:103D500082CF81E080936602F3CF81E08093670297
:103D60007ACF209105018AE0289F90011124241721
:103D7000350708F085CF9F5F9093610202C09F3F97
:103D8000D1F7002359F00E94311C9FEF10160CF45C
:103D900091E0899F802D112480936802112359F0AE
:103DA0000E94311C9FEF11160CF491E0899F802D29
:103DB00011248093690230916802332309F460CFA3
:103DC00020916902222309F45BCF45EB3403C00143
:103DD0001124992359F09093680245EB2403900134
:103DE0001124332339F0309369024ACF81E0809364
:103DF0006802F3CF81E08093690242CF86E0E4E677
:103E0000F2E0DF011D928A95E9F7109262021092AA
:103E100061021092630208958EEE94E00E94E4061F
:103E20001F9281E08F931F9285E08F9380EA94E048
:103E30009F938F930E947D070F900F900F900F908C
:103E40000F900F900895833009F445C028F4813015
:103E500061F0823049F10895853009F46AC008F4B0
:103E600051C0863009F47CC0089580910901482F23
:103E7000460F5527551F4F3F510594F4680F609327
:103E80000901809109011F928F9389ED93E09F931F
:103E90008F930E947D070F900F900F900F900895C1
:103EA0008FEF80930901EDCF80910801482F460FD5
:103EB0005527551F4F3F510554F4680F6093080173
:103EC000809108011F928F9387EC93E0E0CF8FEFF2
:103ED00080930801F5CF80910701482F460F5527A1
:103EE000551F4F3F510554F4680F609307018091AF
:103EF00007011F928F9384EB93E0C9CF8FEF8093DC
:103F00000701F5CF80910601482F460F5527551F11
:103F10004F3F510554F4680F6093060180910601EC
:103F20001F928F938FE993E0B2CF8FEF80930601BA
:103F3000F5CF80910301482F460F5527551F4F3F5E
:103F4000510554F4680F60930301809103011F929F
:103F50008F9386E893E09BCF8FEF80930301F5CF9B
:103F600080910201482F460F5527551F4F3F51059D
:103F700054F4680F60930201809102011F928F93A5
:103F80008BE693E084CF8FEF80930201F5CF8330EF
:103F9000C9F128F4813061F0823019F1089585303B
:103FA00009F452C008F43FC0863009F45EC0089599
:103FB00080910901681790F4861B80930901809114
:103FC00009011F928F938CE593E09F938F930E943A
:103FD0007D070F900F900F900F9008951092090198
:103FE000EECF80910801681750F4861B809308017A
:103FF000809108011F928F938AE493E0E6CF10929C
:104000000801F6CF80910701681750F4861B809352
:104010000701809107011F928F9387E393E0D5CF2B
:1040200010920701F6CF80910601681750F4861BA5
:1040300080930601809106011F928F9382E293E0A4
:10404000C4CF10920601F6CF80910301681750F497
:10405000861B80930301809103011F928F9389E057
:1040600093E0B3CF10920301F6CF8091020168175D
:1040700050F4861B80930201809102011F928F935E
:104080008EEE92E0A2CF10920201F6CFCF93C82F0E
:104090001F928F9383EF95E09F938F930E947D07EC
:1040A00061E070E080E090E004C0660F771F881F39
:1040B000991FCA95D2F70E9489160F900F900F9002
:1040C0000F90CF910C94F112CF93DF93EBEFE80FA9
:1040D000EF3308F040C2F0E0E45EF34D0C94A02B07
:1040E00089E39BE00E94E40685E79AE00E94E406EB
:1040F0000E9457191F928F9382E79AE09F938F93A4
:104100000E947D0780E79AE00E94E4060E9453190E
:10411000C82F8DE59AE00E94E4061F92CF9388E5B0
:104120009AE09F938F930E947D0786E59AE00E9414
:10413000E4068CE49AE00E94E4068C2F81701F92C2
:104140008F9389E49AE09F938F930E947D0787E481
:104150009AE00E94E4068DE39AE00E94E406C1FB27
:10416000882780F91F928F938AE39AE09F938F9319
:104170000E947D0788E39AE00E94E4068CE29AE0C0
:104180000E94E406C2FB882780F91F928F9389E280
:104190009AE09F938F930E947D0787E29AE00E94A6
:1041A000E4068EE19AE00E94E406C3FBCC27C0F946
:1041B0001F92CF938BE19AE09F938F930E947D078C
:1041C00089E19AE00E94E4060E945B19EC0185E017
:1041D0009AE00E94E406DF93CF9380E09AE09F93F9
:1041E0008F930E947D078EEF99E00E94E40685EE92
:1041F00099E00E94E4068C2F81701F928F9382EECB
:1042000099E09F938F930E947D078DB79EB780960C
:104210000FB6F8949EBF0FBE8DBF80EE99E00E944E
:10422000E40689EC99E00E94E406C1FB882780F946
:104230001F928F9386EC99E09F938F930E947D0746
:1042400084EC99E00E94E40682EB99E00E94E40687
:104250008D2F81701F928F938FEA99E09F938F9398
:104260000E947D078DEA99E00E94E4068BE999E0BF
:104270000E94E406D695D1701F92DF9388E999E0F9
:104280009F938F930E947D0786E999E00E94E40640
:1042900084E899E00E94E406C2FB882780F91F9217
:1042A0008F9381E899E09F938F930E947D078FE71A
:1042B00099E00E94E4068DE699E00E94E406C3FBC3
:1042C000882780F91F928F938AE699E09F938F93B6
:1042D0000E947D0788E699E00E94E4068EE599E059
:1042E0000E94E406C4FB882780F91F928F938BE518
:1042F00099E09F938F930E947D0789E599E00E9442
:10430000E40687E499E00E94E406C5FB882780F96B
:104310001F928F9384E499E09F938F930E947D076F
:1043200082E499E00E94E40686E299E00E94E406B5
:10433000C6FB882780F91F928F9383E299E09F93B1
:104340008F930E947D078DB79EB780960FB6F89425
:104350009EBF0FBE8DBF81E299E00E94E40689E115
:1043600099E00E94E406C7FBCC27C0F91F92CF93C7
:1043700086E199E09F938F930E947D0784E199E005
:104380000E94E4060F900F900F900F9081E01CC0E8
:1043900088E29BE00E94E4060E94EC19F7CF82E6D7
:1043A00097E00E94E406F2CF80915B02807F8093C9
:1043B0005B028BE397E00E94E40684E29BE00E94AC
:1043C000E40681E080936B02DF91CF91089588E04D
:1043D0009BE00E94E4060E947709D8CF90915B028F
:1043E000892F8E7F90FF816080935B0280FF03C0E6
:1043F0008CEF9AE0D6CF8FEE9AE00E94E40680918F
:104400005B02817F80935B02C1CF90915B02892F19
:104410008D7F91FF826080935B0281FF08C082EEF6
:104420009AE00E94E40680915B028160EBCF84ED0C
:104430009AE0B7CF90915B02892F8B7F92FF8460C7
:1044400080935B0282FF03C085EC9AE0EACF85EBA4
:104450009AE0A7CF90915B02892F877F93FF8860B6
:1044600080935B0283FF03C089EA9AE0DACF8CE98C
:104470009AE097CF8CE297E00E94E40686EF96E000
:104480000E94E4068FED96E00E94E40684EA96E03E
:104490000E94E40689E796E084CF8BE696E00E94CE
:1044A000E4060E94150E1F928F9381E596E09F937C
:1044B0008F930E947D07809114011F928F938AE34E
:1044C00096E09F938F930E947D07809190021F92A8
:1044D0008F9387E296E09F938F930E947D07809150
:1044E000A50287FB882780F91F928F938FE096E0C3
:1044F0009F938F930E947D070E94621B9F938F93CF
:104500007F936F9388EF95E09F938F930E947D0731
:104510008DB79EB746960FB6F8949EBF0FBE8DBF5F
:1045200035CF0E94F1129091A502892F97FB87F950
:1045300080588093A50287FF03C082E99AE031CFBB
:1045400087E89AE02ECF80E00E9446201FCF895353
:10455000FBCF8D51F9CF85E89AE00E94E40680E018
:1045600033CF80E008950C94B1228E518A3030F41C
:10457000E82FF0E0E858FE4F8081089580E008952C
:10458000CF93C82F80916B028130C1F0882339F01E
:10459000823009F447C010926B0280E00DC00E9487
:1045A0006F188232D1F78C2F0E94B12281111BC06B
:1045B0008C2F0E9464208170CF9108950E946F1803
:1045C000823289F38C2F0E94B32281111BC0C43127
:1045D000D9F060F4CB3071F0C031D1F089EE95E0C4
:1045E0000E94E40613C081E090E0E5CFC93261F09B
:1045F000C833A1F78BE397E00E94E4068FEE95E0C5
:104600000E94E40681E0D7CF10926B0280E0D3CF06
:104610000E940C1F8BEE95E00E94E40682E08093DE
:104620006B02F0CFC432C8F4CE3108F0BEC0CB303C
:10463000E1F040F4C73009F4CCC08DE894E00E946A
:10464000E40626C0C331C1F1C431B9F780916A02D2
:10465000882351F110926A020AC0CB3409F4B7C022
:10466000C8F4C93299F3C83341F70E940C1F8091F6
:104670006A02882309F4C4C01F928F9387E894E0EC
:104680009F938F930E947D070F900F900F900F9034
:1046900081E092CFC13509F494C0C23509F48BC0D2
:1046A000CE3459F66AE08EC08CE994E00E94E406AC
:1046B00081E080936B0280CF86E794E00E94E4065D
:1046C00084E694E00E94E406809109011F928F9392
:1046D00081E694E09F938F930E947D078FE594E09D
:1046E0000E94E4068DE494E00E94E40680910801B3
:1046F0001F928F938AE494E09F938F930E947D078B
:1047000088E494E00E94E40689E394E00E94E406D1
:10471000809107011F928F9386E394E09F938F937C
:104720000E947D0784E394E00E94E40683E294E023
:104730000E94E406809106011F928F9380E294E02C
:104740009F938F930E947D078EE194E00E94E40680
:1047500089E094E00E94E406809103011F928F9308
:1047600086E094E09F938F930E947D0784E094E01D
:104770000E94E4068DEE93E00E94E406809102011F
:104780001F928F938AEE93E09F938F930E947D07F1
:1047900088EE93E00E94E4068DB79EB748960FB668
:1047A000F8949EBF0FBE8DBF62CF8C2F0E94B522A2
:1047B00080936A025CCF61E080916A020E94231FAD
:1047C00056CF61E080916A020E94C71F50CF6AE015
:1047D000F3CF8EE18093090182E3809308018AE0A0
:1047E0008093070184E18093060188E080930301B0
:1047F00088E2809302018FE894E00E94E40637CFBC
:1048000084E894E01CCF80918F0208959FB7F894BC
:1048100010926E029FBF9091AB02943009F048C095
:104820002091E9002F703091EC00932F917030FDB2
:1048300090E8922B23E02093E9002091EB0020FFE9
:1048400034C02091EE0027FF30C020916C0222235B
:1048500021F02091E80025FF28C010926C0226E08C
:104860003091E80035FF14C08093F1008091E8009A
:1048700085FD27C08091E80080FFFCCF8091E80093
:104880008E778093E8009F709093E90080E0089510
:104890003091AB02343049F43091EB0035FD05C066
:1048A000215041F481E080936C029F709093E90065
:1048B0008FEF0895EFE9FFE03197F1F700C00000B6
:1048C000CFCF8FB7F89421E020936E028FBFDBCF5C
:1048D000CF93DF9300D00F92CDB7DEB79091AB02AC
:1048E000943019F589837B836A8382E08093E900A1
:1048F0008FEF9091E800815095FD06C095ED9A9557
:10490000F1F700008111F5CF8091E80085FF0DC01F
:1049100050E040E063E070E0CE0101960E94F02696
:104920008091E8008E778093E8000F900F900F90B1
:10493000DF91CF910895BC0184E00C946824BC0100
:1049400083E00C9468249C0182E08093E9009FEF4F
:104950008091E800915085FD06C085ED8A95F1F7BC
:1049600000009111F5CF8091E80085FF0CC050E068
:1049700040E066E070E0C9010E94F0268091E80006
:104980008E778093E8000895CF93DF93EC018091B8
:1049900014018823B1F18091A50287FF32C060E243
:1049A00082E08093E9008FEF9091E800815095FDBF
:1049B00006C095ED9A95F1F700008111F5CF809131
:1049C000E80085FF1BC08091140170E050E040E0DA
:1049D000811104C050E040E068E070E0CE010E9428
:1049E000F0268091E8008E778093E80080E2FE0157
:1049F000AFE6B2E001900D928A95E1F7DF91CF9199
:104A0000089568E081E0CDCF89E69BE00E94E4064E
:104A10008091AA02811109C00E9480280E94DD288D
:104A20008091E20084608093E200089585E69BE037
:104A30000E94E4061092AA02089581E69BE00C947D
:104A4000E4068DE59BE00C94E40689E59BE00E947A
:104A5000E4060C941E1B20916D022F5F822F62E3EF
:104A60000E94802B992319F020936D0208951092D3
:104A70006D0280916E028823F1F08091AB02843048
:104A8000C1F49091E9009F702091EC00822F817019
:104A900020FD80E8892B93E09093E9009091EB0052
:104AA00090FF04C09091EE0097FD08C08F70809336
:104AB000E90010926E0208951092F1009091E800C2
:104AC00095FDFACF9091E80090FFF0CF9091E8002B
:104AD0009E779093E800EACF42E061EC81E00E948B
:104AE000FC2742E261EC82E00E94FC2742E261EC9A
:104AF00083E00C94FC278091AD02833009F45FC001
:104B000030F48130C1F1823009F49BC008958A30BD
:104B100009F487C08B3009F46DC0893009F04EC0AC
:104B20008091AC02813209F049C08091B00290912D
:104B3000B102029708F042C08091E800877F80931D
:104B4000E8008091E80082FF35C09091F3008091E9
:104B5000F200029729F48091F1008B7F813021F4DB
:104B60008091F10080938F028091E8008B77809391
:104B7000E8000C9430288091AC02813AF9F48091DD
:104B8000E800877F8093E8008091B0029091B102A5
:104B9000892B61F460E28FE692E070E00E943F278B
:104BA0008091E8008B778093E800089560E090E0C2
:104BB00080E0F3CF8091AB028111C3CF0895809143
:104BC000AC02813AD9F78091B0029091B102892B61
:104BD000A9F78091E800877F8093E8008091E80042
:104BE00080FFFCCF809114018093F1008091E80058
:104BF0008E77BDCF8091AC02813201F78091B002F7
:104C00009091B102892BD1F68091E800877F809343
:104C1000E8000E9430288091AE02809314010C9429
:104C2000F1128091AC02813249F68091E800877FD1
:104C30008093E8000E9430288091AF028093900218
:104C400008958091AC02813A09F0B8CF8091E800D4
:104C5000877F8093E8008091E80080FFFCCF8091FF
:104C60009002C2CF84B7877F84BF0FB6F894A8950F
:104C700080916000886180936000109260000FBE98
:104C800080E890E00FB6F894809361009093610003
:104C90000FBE0E94C40E0E9480280E94DD288091D1
:104CA000E20084608093E20086E094E20E941E1994
:104CB00078940E94652B0E94D00E8AE091E00E94B9
:104CC000100E88E49BE00E94E4068091AB028530E0
:104CD00039F00E94000F0E94CE0E0E94CF0EF5CF39
:104CE00084E49BE00E94E4060E94D51A8091A90208
:104CF000882359F30E94061B882339F30E94DA2681
:104D0000E4CF0C948326292F33272330310521F15A
:104D100068F42130310509F443C02230310509F42B
:104D200044C090E080E030E020E026C02132310530
:104D300051F122323105A9F76330710590F7FB017B
:104D4000EE0FFF1FEB57FE4F208131816E577E4FD4
:104D5000FB01808190E010C099278130910581F09E
:104D6000009729F00297E9F6EDE6FBE002C0EFE8D4
:104D7000FBE0849190E09F01FA0131832083089544
:104D8000EDE7FBE0F6CF6330710558F6660F771F4D
:104D9000FB01E557FE4F2081318189E090E0ECCFA7
:104DA00082E190E02EEE3BE0E7CF8BE590E023E957
:104DB0003BE0E2CF80E189BD82E189BD09B400FE1C
:104DC000FDCF8091D8008F7D8093D8008091E00046
:104DD00082608093E0008091E00081FDFCCF089527
:104DE000AF92BF92CF92DF92FF920F931F93CF9318
:104DF000DF936C01EB018A010E944F28F82E81118C
:104E000023C00115110539F0F80180819181C81B7B
:104E1000D90BC80ED91EB12CA12C2097A9F08091D6
:104E2000E80085FD22C08091E8008E778093E8003D
:104E300001151105A1F0F80180819181A80EB91E1C
:104E4000B182A08285E0F82E8F2DDF91CF911F9146
:104E50000F91FF90DF90CF90BF90AF9008950E9488
:104E60004F288823D1F2F82EEFCFF60181916F0100
:104E70008093F1002197FFEFAF1ABF0ACECFFC015C
:104E80008091B2029091B30286179707A0F0611546
:104E9000710529F49091E8009E779093E80090E0E6
:104EA0006115710551F4911108C08091E80082FFED
:104EB00034C080E00895BC01F2CF8091AB0288231A
:104EC000C1F18530C1F18091E80083FD30C080914F
:104ED000E80082FDEACF8091E80080FFE1CF809179
:104EE000F3002091F200382F6115710519F0283078
:104EF000310558F091E02830310509F090E020911B
:104F0000E8002E772093E800CBCF81918093F100C9
:104F1000615071092F5F3F4FE7CF8091AB0288232B
:104F200041F0853041F08091E80083FFBECF81E001
:104F3000089582E0089583E00895FC018091B20213
:104F40009091B30286179707A0F06115710529F4B7
:104F50008091E8008E778093E80090E061157105FC
:104F600051F4911108C08091E80082FF35C080E0C3
:104F70000895BC01F2CF8091AB028823C9F185303E
:104F8000C9F18091E80083FD31C08091E80082FD85
:104F9000EACF8091E80080FFE1CF8091F30020917B
:104FA000F200382F6115710519F02830310558F0DD
:104FB00091E02830310509F090E08091E8008E778B
:104FC0008093E800CBCF84918093F10031966150BB
:104FD00071092F5F3F4FE6CF8091AB02882341F0EC
:104FE000853041F08091E80083FFBDCF81E00895D6
:104FF00082E0089583E00895982F973028F08F700D
:105000008093E90081E008959093E900242F762FA2
:1050100050E0981731F07091EC002091ED00509124
:10502000F00021FD02C09F5FE8CF3091EB003E7F92
:105030003093EB003091ED003D7F3093ED003091E7
:10504000EB0031603093EB007093EC002093ED00A7
:105050005093F0002091EE0027FDE5CF80E0089509
:105060008091AC0287FF13C08091E80082FF06C0E8
:105070008091E8008B778093E80004C08091AB02B8
:105080008111F2CF08958091AB028823D9F38091EA
:10509000E80080FFF8CF8091E8008E77ECCF209178
:1050A000E4003091E50095E6A9012091EC00822F03
:1050B000817020FF06C08091E80080FF06C080E07C
:1050C00008952091E80022FD1AC08091AB02882348
:1050D00089F0853089F08091EB0085FD0FC020912B
:1050E000E4003091E50042175307F9F29150E1F6E0
:1050F00084E0089582E0089583E0089581E00895B2
:105100000E94EE280E94F628E0EEF0E080818160A7
:105110008083E8EDF0E080818F77808319BCA7ED74
:10512000B0E08C918E7F8C9380818F7E80831092F3
:10513000AA0208950F931F93CF93DF930E94EE2846
:105140000E94F628C8EDD0E088818F778883888117
:105150008068888388818F7D888319BC1092AB0218
:105160001092A7021092A9021092A80200EE10E07D
:10517000F80180818B7F808388818160888342E011
:1051800060E080E00E94FC27E1EEF0E080818E7F0D
:105190008083E2EEF0E0808181608083808188609E
:1051A0008083F80180818E7F8083888180618883FD
:1051B000DF91CF911F910F910895E8EDF0E080818C
:1051C0008F7E8083E7EDF0E080818160808384E0E2
:1051D00082BF81E08093AA020C949A28E8EDF0E067
:1051E00080818E7F80831092E20008951092DA0011
:1051F0001092E10008951F920F920FB60F921124A2
:105200002F933F934F935F936F937F938F939F93CE
:10521000AF93BF93EF93FF938091E10082FF0BC0A8
:105220008091E20082FF07C08091E1008B7F809334
:10523000E1000E942B258091DA0080FF19C0809147
:10524000D80080FF15C08091DA008E7F8093DA004D
:105250008091D90080FF96C080E189BD82E189BD3F
:1052600009B400FEFDCF81E08093AB020E940425CB
:105270008091E10080FF19C08091E20080FF15C09D
:105280008091E2008E7F8093E2008091E200806155
:105290008093E2008091D80080628093D80019BC8E
:1052A00085E08093AB020E9421258091E10084FF7C
:1052B0002BC08091E20084FF27C080E189BD82E19C
:1052C00089BD89B5982F917080FFFBCF8091D80060
:1052D0008F7D8093D8008091E1008F7E8093E100E4
:1052E0008091E2008F7E8093E2008091E2008160F5
:1052F0008093E2008091A702882309F449C084E0EA
:105300008093AB020E9425258091E10083FF29C094
:105310008091E20083FF25C08091E100877F809328
:10532000E10082E08093AB021092A7028091E1003D
:105330008E7F8093E1008091E2008E7F8093E20077
:105340008091E20080618093E20042E060E080E0D2
:105350000E94FC278091F00088608093F0000E94FA
:105360001D25FF91EF91BF91AF919F918F917F91FB
:105370006F915F914F913F912F910F900FBE0F90C2
:105380001F90189519BC1092AB020E94162570CF81
:105390008091E30087FD93E09093AB02B3CF1F921F
:1053A0000F920FB60F9211242F933F934F935F9359
:1053B0006F937F938F939F93AF93BF93CF93DF931D
:1053C000EF93FF93D091E900DF708091EC00C82F3C
:1053D000C17080FDC0E81092E9008091F000877FE5
:1053E0008093F00078940E94132A1092E900809133
:1053F000F00088608093F000CD2BCF70C093E9005F
:10540000FF91EF91DF91CF91BF91AF919F918F91DC
:105410007F916F915F914F913F912F910F900FBEB0
:105420000F901F9018951F93CF93DF93CDB7DEB7E2
:10543000AA970FB6F894DEBF0FBECDBF8CEA92E0FC
:105440002091F100FC012193CF01F2E0843B9F0702
:10545000B9F70E947B258091E80083FF1EC18091EF
:10546000AC029091AD029A3008F017C1E92FF0E03C
:10547000E55AF34D0C94A02B803899F0823809F04E
:105480000CC18091B0028F70873008F006C1809304
:10549000E9008091EB0085FB882780F91092E900F4
:1054A00006C08091A8029091A9029111826090910A
:1054B000E800977F9093E8008093F1001092F1004C
:1054C0008091E8008E77E5C0882309F4D3C082304C
:1054D00009F0E3C08091AE028111D6C08091B00284
:1054E0008F702FEF280F263008F0D7C08093E90087
:1054F0002091EB0020FFC8C0933031F48091EB0085
:1055000080628093EB00C0C09091EB00906190931B
:10551000EB0021E030E001C0220F8A95EAF72093EA
:10552000EA001092EA008091EB008860EACF8111D6
:10553000B4C01091AE021F778091E3008078812B78
:105540008093E3008091E800877F8093E8000E94C9
:1055500030288091E80080FFFCCF8091E3008068D4
:105560008093E30082E0111183E08093AB0295C049
:105570008058823008F091C08091AE029091AF02C5
:105580008C3D23E09207A1F583E08A838AE2898338
:105590004FB7F894DE01139620E03EE051E2E32F8E
:1055A000F0E050935700E49120FF03C0E295EF70C4
:1055B0003F5FEF708E2F90E0EA30C0F0C7968D937A
:1055C0009D932F5F243159F74FBF8091E800877F6B
:1055D0008093E8006AE270E0CE0101960E943F27C6
:1055E0008091E8008B778093E80057C0C096E7CFA2
:1055F0006091B0027091B102AE014F5F5F4F0E94A7
:105600008126BC01892B09F448C09091E800977F5E
:105610009093E80089819A810E949D27E1CF80388C
:10562000E1F58091E800877F8093E8008091A702F0
:105630008093F10045CF811130C09091AE0292303D
:1056400060F58091E800877F8093E8009093A7023F
:105650000E9430288091A702882311F084E005C0C1
:105660008091E30087FDFACF81E08093AB020E9436
:105670006C2513C08091AE02813079F481E09330C3
:1056800009F080E08093A9021092E9008091E8007F
:10569000877F8093E8000E9430288091E80083FF94
:1056A0000AC08091E800877F8093E8008091EB003A
:1056B00080628093EB00AA960FB6F894DEBF0FBE0F
:1056C000CDBFDF91CF911F910895CF938091AB0211
:1056D0008823A1F0C091E900CF709091EC00892F50
:1056E000817090FD80E8C82B1092E9008091E8005D
:1056F00083FD0E94132ACF70C093E900CF910895D3
:10570000991B79E004C0991F961708F0961B881F13
:105710007A95C9F78095089597FB072E16F40094A3
:1057200007D077FD09D00E94A62B07FC05D03EF4D8
:10573000909581959F4F0895709561957F4F08953D
:10574000EE0FFF1F0590F491E02D0994AA1BBB1BDF
:1057500051E107C0AA1FBB1FA617B70710F0A61B71
:10576000B70B881F991F5A95A9F780959095BC0192
:10577000CD010895F999FECF92BD81BDF89A992780
:1057800080B50895A8E1B0E042E050E00C94EE2B23
:10579000262FF999FECF92BD81BDF89A019700B4EA
:1057A000021639F01FBA20BD0FB6F894FA9AF99A8A
:1057B0000FBE08950396272F0E94C92B0E94C82B65
:1057C000252F0E94C92B242F0C94C92B0196272F1B
:1057D0000E94C92B0C94C82BDC01CB01FC01F99968
:1057E000FECF06C0F2BDE1BDF89A319600B40D922D
:1057F00041505040B8F70895F894FFCFBA10BA104E
:105800001211121164118011E710E7108B11171299
:10581000261226128212E710E7108B1200130013D3
:10582000091309130B1309130913091300130013A8
:105830001013091309131013E721D421EE2170204E
:10584000AB22AB22CF21AB22AB221A22AB222A22DF
:105850009122AB22AB22AB22AB224D22AB22AB2258
:105860003A22AB220522AB22AB22A922A922A922ED
:10587000A922A922A922A922A922A922A322AB22D4
:10588000E721C821AB22AB22AB22AB22AB22AB2259
:10589000AB22AB22AB22AB22A322AB22AB22CF2185
:1058A000AB22A722A722A722A722A722A722A722AC
:1058B000A722A722A3223C2A642A4D2B642A4D2B1F
:0A58C000972AB82A4D2B0F2B1B2B43
:1058CA0038022808641E140A321E0324C424A3249E
:1058DA009F249B240100E200E900EA00B500B6001B
:1058EA00B700CD008301CC008A0192019401210204
:1058FA00230224022502260227022A02B300B40048
:10590A006F007000818283E200E900EA00B500B608
:10591A0000B700CD008301CC008A019201940121D5
:10592A0002230224022502260227022A02B300B415
:10593A00006F0070008182830102030405060708D4
:10594A00090040BC22DE0C220C000CA50BBE0BD7B2
:02595A000B0040
:00000001FF
